:100000000C9434000C943E000C943E000C943E0082
:100010000C943E000C943E000C943E000C943E0068
:100020000C943E000C943E000C943E000C943E0058
:100030000C943E000C943E000C943E000C943E0048
:100040000C943E000C943E000C943E000C943E0038
:100050000C943E000C943E000C943E000C943E0028
:100060000C943E000C943E0011241FBECFEFD8E04C
:10007000DEBFCDBF0E94C0000C945B010C94000059
:10008000299A85ED8A95F1F700002998089595B190
:10009000937C95B984FD2A9A85FD2B9A86FD2C9A2E
:1000A00087FD2D9A299A85ED8A95F1F70000299808
:1000B0000895CF93C82F0E9447008C2F8295807F90
:1000C0000E9447002D98CF91089528980C945900CC
:1000D000289A0C945900289883E30E945900289884
:1000E00082E30E945900289888E20E9459002898CB
:1000F0008CE00E945900289886E00E9459002898B8
:1001000081E00E9459008FED9EE20197F1F700C057
:1001100000000895289881E00E9459008FED9EE22A
:100120000197F1F700C000000895FC018081289A32
:100130000C945900CF93DF93CDB7DEB728970FB655
:10014000F894DEBF0FBECDBF1A821982FE0133962E
:1001500026E0DF011D922A95E9F74AE0BE016F5FB4
:100160007F4F0E9426018981289A0E945900289673
:100170000FB6F894DEBF0FBECDBFDF91CF910895CB
:100180008FEF84B90E946B00289A84E50E94590081
:10019000289A88E60E945900289A85E60E9459000C
:1001A000289A80E20E945900289A83E50E9459000B
:1001B000289A85E70E945900289A8DE60E945900E6
:1001C000289A80E20E945900289A89E60E945900E4
:1001D000289A83E70E945900289A80E20E945900D9
:1001E000C6E3D0E00AE010E0CE01B8010E94FE00B4
:1001F000EB010E949A002097B9F7FFCF97FB072EDB
:1002000016F4009407D077FD09D00E94120107FC74
:1002100005D03EF4909581959F4F08957095619516
:100220007F4F0895AA1BBB1B51E107C0AA1FBB1F2C
:10023000A617B70710F0A61BB70B881F991F5A9572
:10024000A9F780959095BC01CD010895BB274A3050
:1002500031F4992322F4BDE2909581959F4F0C943F
:100260003201BB27FB015527AA27880F991FAA1F18
:10027000A41710F0A41B83955051B9F7A05DAA33C1
:1002800008F0A95DA193009779F7B111B19311928C
:10029000CB010C944B01DC01FC01672F719177239A
:1002A000E1F7329704C07C916D9370836291AE1731
:0A02B000BF07C8F30895F894FFCFCC
:00000001FF
